:020000040000FA
:0600000029EF0AF01200D6
:0610000029EF0AF01200C6
:021008001200D4
:021018001200C4
:02102A000000C4
:04102C00D9CFE6FF33
:10103000E1CFD9FF040EE126DE6ADD6ADECF10F0D3
:10104000DDCF11F0FD0EDBCF12F0FE0EDBCF13F083
:101050001250105C135011581AE2020EDB6A030E94
:10106000DB6A020EDBCF10F0030EDBCF11F0C60EF1
:10107000105C020E115806E2020EDB2A030E01E399
:10108000DB2AEFD7DF2A010E01E3DB2AD7D7040ED4
:10109000E15C02E2E16AE552E16EE552E7CFD9FF99
:1010A0001200380EE66E26D8E5520F0EE66EE66A9E
:1010B000BDDFE552E552010EE66E1CD8E5520F0E7B
:1010C000E66EE66AB3DFE552E5520E0EE66E12D822
:1010D000E5520F0EE66EE66AA9DFE552E552830E91
:1010E000E66E08D8E5520F0EE66EE66A9FDFE5521F
:1010F000E5521200D9CFE6FFE1CFD9FFFE0EDB505B
:10110000836E8490849284840F0EE66EE66A8EDF8E
:10111000E552E55284940F0EE66EE66A87DFE552EB
:10112000E552E552E7CFD9FF1200D9CFE6FFE1CF74
:10113000D9FFFE0EDB50836E8480849284840F0E70
:10114000E66EE66A73DFE552E55284940F0EE66EB2
:10115000E66A6CDFE552E552E552E7CFD9FF1200AF
:10116000D9CFE6FFE1CFD9FF150EE126080EDB6AE5
:10117000090EDB6AD9500D0FE96EDACFEAFF520E85
:10118000EE6E650EEE6E730EEE6E750EEE6E6C0EFE
:10119000EE6E740EEE6E3A0EEE6EEE6A956A966A1A
:1011A00092687FDF0C0EC16E8E0EC06E090EC26E8D
:1011B000800EE66E9FDFE5520C0EDB6AD9500D0FF4
:1011C000106EDACF11F00C0EDB500F011024E96E17
:1011D000000E1120EA6EEF5019E0D9500D0F106E7D
:1011E000DACF11F00C0EDB501024E96E000E112046
:1011F000EA6EEF50E66E99DFE552C80EE66EE66ADB
:1012000015DFE552E5520C0EDB2AD8D7C282C2B2F6
:10121000FED7C450106E10C011F0106A0A0E10C034
:10122000DBFF0B0E11C0DBFFC350E76E0A0EDBCFF6
:1012300010F00B0EDBCF11F0E7501026000E11223C
:10124000080E10C0DBFF090E11C0DBFF0C0EDB6ABD
:10125000040EF36E0C0EDBCFF4FFF350F45C62E28D
:10126000080EDBCF12F0090EDBCF13F00A0E0B6E67
:101270000C6A12C006F013C007F003EC0AF002C0BB
:1012800012F003C013F0D9CF10F0DACF11F00C0E2A
:10129000DB50020D1050F324E96E1150F420EA6E79
:1012A00012C0EEFF13C0EDFFD9CF14F0DACF15F066
:1012B0000C0EDB50020D1450F324E96E1550F4208F
:1012C000EA6EEECF12F0EFCF13F0300E1226000EC2
:1012D0001322D9CF10F0DACF11F00C0EDB50020D33
:1012E0001050F324E96E1150F420EA6E12C0EEFFA4
:1012F00013C0EDFF0A0E106E116A080EDBCF06F068
:10130000090EDBCF07F010C00BF011C00CF003EC9E
:101310000AF0080E06C0DBFF090E07C0DBFF0C0E4B
:10132000DB2A96D7870EE66EE5DEE552060EDBCFAA
:10133000E6FFFBDEE552040EDBCFE6FFF6DEE5520C
:10134000020EDBCFE6FFF1DEE552DFCFE6FFEDDE9A
:10135000E5525CD7150EE15C02E2E16AE552E16E0E
:08136000E552E7CFD9FF1200AE
:081368002A0EF66E100EF76E5E
:10137000000EF86E00010900F550656F0900F55088
:10138000666F03E1656701D03DD00900F550606FDD
:101390000900F550616F0900F550626F09000900FE
:1013A000F550E96E0900F550EA6E090009000900E0
:1013B000F550636F0900F550646F09000900F6CF1E
:1013C00067F0F7CF68F0F8CF69F060C0F6FF61C052
:1013D000F7FF62C0F8FF0001635302E1645307E0C6
:1013E0000900F550EE6E6307F8E26407F9D767C0AD
:1013F000F6FF68C0F7FF69C0F8FF00016507000E3F
:06140000665BBFD712007D
:0A140600036A026A100EE76ED89028
:1014100006360736023603360B50025C0C50035872
:1014200005E30B50025E0C50035A062AE72EF0D754
:021430001200A8
:0E143200000EF36E00EE00F0080E01D812005E
:10144000EA6002D0EE6AFCD7F350E9601200EE6A5F
:02145000FCD7C7
:0E14520013EE00F023EE00F0F86A0F9CB4ECED
:0E14600009F037EC0AF0B0EC08F0FBD71200F0
:02146E0012006A
:00000001FF
