:020000040000FA
:060000008DEF09F0120073
:061000008DEF09F0120063
:021008001200D4
:021018001200C4
:02102A000000C4
:04102C00D9CFE6FF33
:10103000E1CFD9FF0D0EE126D9CFE9FFDACFEAFFE4
:10104000570EEE6E450EEE6E4C0EEE6E430EEE6ECD
:101050004F0EEE6E4D0EEE6E450EEE6EEE6AD950F0
:10106000080FE96EDACFEAFF500EEE6E490EEE6E13
:10107000430EEE6E540EEE6EEE6A0F0EC16E956A62
:10108000966A62D8320EE66EE66A23D8E552E552D9
:10109000D9CF6AF0DACF6BF0AAD80F0EE66EE66A07
:1010A00018D8E552E552C00EE66E77D8E552000139
:1010B000D950080F6A6FDACF6BF099D8FFD70D0EB1
:1010C000E15C02E2E16AE552E16EE552E7CFD9FF69
:1010D0001200D9CFE6FFE1CFD9FF040EE126DE6A88
:1010E000DD6ADECF00F0DDCF01F0FD0EDBCF02F0D8
:1010F000FE0EDBCF03F00250005C035001581AE2F1
:10110000020EDB6A030EDB6A020EDBCF00F0030E79
:10111000DBCF01F0C60E005C020E015806E2020EA3
:10112000DB2A030E01E3DB2AEFD7DF2A010E01E3FE
:10113000DB2AD7D7040EE15C02E2E16AE552E16EF8
:10114000E552E7CFD9FF1200380EE66E26D8E552F9
:101150000F0EE66EE66ABDDFE552E552010EE66E61
:101160001CD8E5520F0EE66EE66AB3DFE552E55293
:101170000C0EE66E12D8E5520F0EE66EE66AA9DF97
:10118000E552E552800EE66E08D8E5520F0EE66E87
:10119000E66A9FDFE552E5521200D9CFE6FFE1CFC4
:1011A000D9FFFE0EDB50836E8490849284840F0EF0
:1011B000E66EE66A8EDFE552E5528494E552E7CFAB
:1011C000D9FF1200D9CFE6FFE1CFD9FFFE0EDB50E9
:1011D000836E8480849284840F0EE66EE66A79DFE3
:1011E000E552E5528494E552E7CFD9FF1200D9CFFA
:1011F000E6FFE1CFD9FF020EE126DE6ADD6ADE50AE
:1012000000016A250F01E96EDD5000016B210F011D
:10121000EA6EEF5019E0DE5000016A250F01E96E19
:10122000DD5000016B210F01EA6EEF50E66ECADF60
:10123000E5520F0EE66EE66A4CDFE552E552DF2A14
:10124000010E01E3DB2ADBD7020EE15C02E2E16A78
:0C125000E552E16EE552E7CFD9FF120035
:04125C002A0EF66EF2
:10126000100EF76E000EF86E00010900F550656F64
:101270000900F550666F03E1656701D03DD00900B4
:10128000F550606F0900F550616F0900F550626F0D
:1012900009000900F550E96E0900F550EA6E0900F1
:1012A00009000900F550636F0900F550646F0900EB
:1012B0000900F6CF67F0F7CF68F0F8CF69F060C0AB
:1012C000F6FF61C0F7FF62C0F8FF0001635302E15F
:1012D000645307E00900F550EE6E6307F8E2640717
:1012E000F9D767C0F6FF68C0F7FF69C0F8FF0001D3
:0A12F0006507000E665BBFD7120011
:0612FA00000EF36E00EE91
:1013000000F0080E01D81200EA6002D0EE6AFCD7A5
:0A131000F350E9601200EE6AFCD70A
:06131A0013EE00F023EECB
:1013200000F0F86A059C2EEC09F09BEC09F016EC35
:0613300008F0FBD71200DB
:021336001200A3
:00000001FF
